:080000000C9455010C94000062
:100008000C9400000C9400000C9400000C94000068
:100018000C9400000C9400000C9400000C94000058
:100028000C9400000C9400000C9400000C94000048
:100038000C9400000C9400000C9400000C94000038
:100048000C9400000C9400000C940000050720603C
:10005800000000000000005F000000070007001417
:100068007F147F14242A7F2A1223130864623649D6
:100078005522500005030000001C224100004122C7
:100088001C00082A1C2A0808083E080800503000EE
:100098000008080808080030300000201008040292
:1000A8003E5149453E00427F400042615149462148
:1000B80041454B311814127F1027454545393C4AB4
:1000C8004949300171090503364949493606494904
:1000D800291E00363600000056360000000814229B
:1000E8004114141414144122140800020151090681
:1000F800324979413E7E1111117E7F494949363E88
:10010800414141227F4141221C7F494949417F09A0
:100118000901013E414151327F0808087F00417FB3
:1001280041002040413F017F081422417F40404068
:10013800407F0204027F7F0408107F3E4141413E18
:100148007F090909063E4151215E7F091929464662
:100158004949493101017F01013F4040403F1F208B
:1001680040201F7F2018207F63140814630304783D
:100178000403615149454300007F414102040810CE
:100188002041417F000004020102044040404040F9
:10019800000102040020545454787F4844443838FD
:1001A80044444420384444487F3854545418087E02
:1001B800090102081454543C7F0804047800447D63
:1001C80040002040443D00007F10284400417F400B
:1001D800007C041804787C080404783844444438C3
:1001E8007C14141408081414187C7C0804040848A7
:1001F80054545420043F4440203C4040207C1C2060
:1002080040201C3C4030403C44281028440C5050AE
:10021800503C4464544C44000836410000007F00C0
:1002280000004136080002010204027F4141417F7B
:10023800000103070F1F3F7FFF001027E80364003A
:100248000A00010000100001100001001000000069
:10025800000000000000300031003200330034009C
:10026800350036003700380039002F002A002B00EF
:100278002D002564004F6E6C792054776F204E75E1
:100288006D6265727321000001002D4E414E0049D8
:100298004E4600000A00040054020100E8029002E1
:1002A8000000F894EE27ECBBF1E0FBBFEBBFE5BF25
:1002B8008DE0A2E0BB27ED938A95E9F780E098E00E
:1002C800A0E6ED930197E9F7ECE9F2E085919591C5
:1002D800009761F0A591B59105901590BF01F001C7
:1002E80005900D920197E1F7FB01F0CFEFE5EDBF27
:1002F800E8E0EEBFC0E6D2E00C94C8022697E4E539
:10030800F0E0E883F983DE0136D20C948304EFE051
:10031800E4BBE0EFE5BB0895A898A99AAA9AAB9A1E
:100328009C9903C0E1E0F0E008959D9903C0E2E0E4
:10033800F0E008959E9903C0E3E0F0E008959F99E6
:1003480003C0EAE0F0E00895A89AA998AA9AAB9A9F
:100358009C9903C0E4E0F0E008959D9903C0E5E0AE
:10036800F0E008959E9903C0E6E0F0E008959F99B3
:1003780003C0EBE0F0E00895A89AA99AAA98AB9A6E
:100388009C9903C0E7E0F0E008959D9903C0E8E078
:10039800F0E008959E9903C0E9E0F0E008959F9980
:1003A80003C0ECE0F0E00895A89AA99AAA9AAB983D
:1003B8009C9903C0EFE0F0E008959D9903C0E0E048
:1003C800F0E008959E9903C0EEE0F0E008959F994B
:1003D80003C0EDE0F0E00895E0E1F0E00895BA939D
:1003E800AA93E881F981309721F4AEE5B2E00E9442
:1003F8008607A881B981119721F4A0E6B2E00E948E
:100408008607A881B981129721F4A2E6B2E00E947A
:100418008607A881B981139721F4A4E6B2E00E9467
:100428008607A881B981149721F4A6E6B2E00E9454
:100438008607A881B981159721F4A8E6B2E00E9441
:100448008607A881B981169721F4AAE6B2E00E942E
:100458008607A881B981179721F4ACE6B2E00E941B
:100468008607A881B981189721F4AEE6B2E00E9408
:100478008607A881B981199721F4A0E7B2E00E9404
:100488008607A881B9811A9721F4A2E7B2E00E94F1
:100498008607A881B9811B9721F4A4E7B2E00E94DE
:1004A8008607A881B9811C9721F4A6E7B2E00E94CB
:1004B8008607A881B9811D9721F4A8E7B2E00E94B8
:1004C8008607A881B9811E9709F4BAD1A881B98194
:1004D8001F9709F4B5D1A6E9B0E00E949E0A17C19A
:1004E8000E94E7091A9729F40E94EC090E94E50A7C
:1004F80006C2A881B9811B9729F40E94EC090E94C1
:10050800CD0AFDC1A881B9811C9729F40E94EC0984
:10051800EA0FFB1FF4C1A881B9811D9739F4AA819C
:10052800BB81EC81FD81EA1BFB0BE9C1E8C1BA93F1
:10053800AA93EDE7F2E0FA93EA93EAE7F2E0FA9396
:10054800EA93EC81FD810E94C00A0E94000B84E0BE
:100558000E941909289674D1ADE7B2E00E94750788
:10056800A6E9B0E00E949E0AD2C06AD188249924E4
:10057800AA24BB2466247724CC24DD24E0E0E0937D
:10058800E102E093E2020895B9DEC1DEC5DE2F0183
:10059800E0E1F0E0E415F505C9F3A091E102B091BE
:1005A800E2020E94220B34F4E0E0E093E102E093DF
:1005B800E202DBDFA091E302B091E402119731F48B
:1005C800D4DFE0E0E093E302E093E402D20107DF46
:1005D800EAE0F0E04E165F066CF4062C072829F4D2
:1005E800F4010E94F1094F0104C0F5010E94F109CC
:1005F8005F013AC0062C072821F4E1E0F0E03F0152
:1006080016C0E1E0F0E0E615F70529F4EEE0F0E0C9
:100618004E165F060CF00BC013D1ADE7B2E00E9496
:100628008607E1E0F0E0E093E302F093E402EFE014
:10063800F0E0E415F50511F498DF16C0EEE0F0E0FF
:10064800E415F50511F062010FC09A928A92BA92E8
:10065800AA92D60145DFE093E102F093E202A0916D
:10066800E102B091E20263DFA4EFB1E00E949E0ACA
:100678008DCFFFCF0000C09A00000895C098C4989D
:10068800C59808951A93F6DF19B3C098E12F199108
:100698000895AA931A93E0E0EABBC19AC298E98147
:1006A800EF5F1E2F10FF02C0C49A01C0C49811FF4B
:1006B80002C0C59A01C0C598E5DFE078E9F718815E
:1006C80026C0AA93A981E5DF0E94F80920C0E0911D
:1006D800E602EA93E091E502EF73E064AE2FF1DF02
:1006E800E091E602EA93E091E702E86BAE2FE9DFDA
:1006F8000895AA93E981E093E502E295EF70E69503
:10070800E695E093E602E881E093E702E0DF2296CF
:100718000895A091E502AF5FA093E502A03818F014
:10072800E0E0E093E502E091E502EF7331F4E09157
:10073800E502EA93A091E702DCDF0895AA93A0916D
:10074800E602A7DFC29A0E94F80921960895A091AF
:10075800E6029FDFE0E0EABBC19AC29A93DF089500
:10076800AA93E981EA93E9810E94010AF0DFAFDFE9
:10077800EEDF0C947F09BA93AA931A93B89AB99AA0
:10078800BA9ABB9AC39ABC9ABD9A78DFC398A4E672
:10079800B0E00E949E0AC39A10E0123040F41A9307
:1007A800AFE38FDF1A931395A0EC8BDFF6CFE1E070
:1007B800E0936002E0E0E0936102E981FA8130971A
:1007C800A9F0A981BA810E94F80AE0936402F09323
:1007D800650212960E94F80AE0937902F0937A0271
:1007E800A981BA8114960E94F80A0AC0E0E0F0E0F4
:1007F800E0936402F0936502E0937902F0937A0241
:10080800E0937B02F0937C02E1E0E0936602E093E0
:100818006702E0936802EFEFE0936902E1E0E0939A
:100828007002E1E7F2E0FA93EA93EFEFEA93A8E0C7
:10083800B0E00E944D0904D0E1E018810C94C6098B
:100848000E94280B00E030E0E0916102E03009F0FE
:100858000FEF383078F4E0E0EA93A32F3F5F49DFE9
:1008680010E0A12F1F5FA03820F4A02F0E94070AD4
:10087800F8CFEFCFE0E0EA93A0E03BDFE0E0EA93D7
:10088800A0E053D30E942F0B0C94E509AA931A9366
:10089800ED81EA93AD8164DF1E2F19DFE981E7302E
:1008A80011F0E83039F4EB81EA93AA810E948109BA
:1008B800EB8308C0E33021F4EB81E095EB8302C0C1
:1008C800E03021F4EA81E0951E2302C0E23029F4E9
:1008D800EA81AB81EA231E2B0EC0E13029F4EA81BC
:1008E800AB81EA231E2707C0E43029F4EA81E095AA
:1008F800AB81EA2B1E23A12F0E94070A1881269696
:100908000895AA9323970E94260BA889A03848F433
:10091800AF85A03430F4AE85A03019F0AD85A03095
:1009280009F4C8C1EE85E887A889BB27EE85F0E001
:10093800AE0FBF1FA138E0E0BE0720F0A889E0E8AD
:10094800EA1BEE872D85AF85BB27ED85F0E0AE0F5E
:10095800BF1FA134E0E0BE0720F0AF85E0E4EA1B4A
:10096800ED87A985A63009F05BC0EC85E13009F474
:10097800A1C1E33039F4E0917B02F0917C02309719
:1009880009F498C10885ED85E695E695E6953E2F2C
:10099800E22FE77019F4AD852A17E9F0A02FBB27DD
:1009A800E32FF0E00E94C50AAA85BB850E940B0AC6
:1009B800269526952695532F5F935F5FE22FAF917B
:1009C800EA1748F0102FE12F1150E03019F00E947B
:1009D800100AF9CFF1CFAE850A1711F1EE85AA8575
:1009E800BB85F0E00E940B0AED85E77009F03F5FD8
:1009F80020E02F932F5FE32FAF91AE1788F41E8569
:100A08001F931F5FE02FAF91AE1718F40E94100AD2
:100A1800F7CFEE85AE81BF81F0E00E940B0AE9CFE7
:100A2800EF85E7703E2FED85E03009F443C1EA8594
:100A3800FB85EE83FF8310E00889303009F065C03C
:100A4800AD85A83008F45CC0E985E03011F0E330EA
:100A580009F402C0E73009F402C0E83009F402C022
:100A6800E63009F402C0E93009F402C0EA3021F4A2
:100A78000A93E8890E94010A1F931F5FEE85AF91D0
:100A8800AE17B8F5A985A63061F461DE20DE0E94B4
:100A98001D0AFA93EA935BDEAE2F0E94C80939DE7D
:100AA80027C0E985E93011F450E00EC0EA3011F4AE
:100AB8005FEF0AC00E941D0A0E94260A5E2FE98580
:100AC800E73011F0E83021F40E942C0A5E2F06C0AE
:100AD800E33011F4509502C0E03021F4A52F0E94B4
:100AE800070A06C00E94300AEFEFEA93AD85CEDE12
:100AF800C3CFEF85E85FEF87ED85E850ED87D1C07C
:100B08005D8520E0E0E0ED877AC0E32FAD85AE0F8C
:100B1800A93020F42D85E0E0ED8703C0E8E0E31B71
:100B28002E2F3A93A22F0E9476094E2FE985E630A0
:100B3800F1F41F931F5FEE85AF91AE17B8F40E94D2
:100B4800360AAE2FE32F0E94B80A0E943D0AE32F0F
:100B5800A42F0E94B80AE095E1215E2B0E941D0A8D
:100B6800FA93EA93A52F0E94C809E3CF2CC0E93075
:100B780011F450E003C0EA30A9F45FEF0E942C0A98
:100B8800AE2FE32F0E94B00A5E2F1F931F5FEE85E2
:100B9800AF91AE1730F40E94300A4A93A0E076DE97
:100BA800F4CF11C01F931F5FEE85AF91AE1758F4B5
:100BB8000E94480AAE2FE32F0E94B00AEA934A9394
:100BC800AD8564DEEFCFED85E03009F473C0AD8507
:100BD800A83028F4ED85E21B5E2FE0E003C0532F18
:100BE800ED85E850ED8710E0EF85E85FEF87E8E0F6
:100BF800E31B2E2F0889EA85FB85EE83FF83E52F0B
:100C0800F0E0E85CFD4F4491E985E630F1F41F938C
:100C18001F5FEE85AF91AE17B8F40E94360AAE2F6B
:100C2800E22F0E94B00A0E943D0AE22FA42F0E94E0
:100C3800B00AE095E1215E2B0E941D0AFA93EA931F
:100C4800A52F0E94C809E3CF2CC0E93011F450E069
:100C580003C0EA30A9F45FEF0E942C0AAE2FE22FFE
:100C68000E94B80A5E2F1F931F5FEE85AF91AE17E3
:100C780030F40E94300A4A93A0E008DEF4CF11C095
:100C88001F931F5FEE85AF91AE1758F40E94480A74
:100C9800AE2FE22F0E94B80AEA934A93AD85F6DD9B
:100CA800EFCFE885AA85BB85F0E0EA0FFB1FEA874E
:100CB800FB87B9CE0E942D0B619608950E94E70923
:100CC8000E94220B24F0E0E0F0E00C947F09A88158
:100CD800B981A038E0E0BE0724F0EFE7F0E00C941B
:100CE8007F09E881F9810C947F090E94E7090E9435
:100CF800220B24F0E0E0F0E00C947F09A881B98190
:100D0800A034E0E0BE0724F0EFE3F0E00C947F09A4
:100D1800E881F9810C947F09BA93AA9323970E94DA
:100D2800550A8F01002E012A19F4E0E0F0E05FC0B7
:100D38000E945C0A0F820E945C0A0E820E945C0A72
:100D48000886EB85A885EA1718F4E0E0F0E04FC0C4
:100D5800F8010F5F1F4F5491A885BB27EE27A50FF9
:100D6800BE1FEB85F0E0EA17FB0718F0E0E0F0E0C3
:100D78003EC0EE81E695E695E6954E2FEE81E7704A
:100D880009F04F5FEF81E030A1F0A985BA85EC93B7
:100D9800A885EB85EA1BF0E0DF01EF81F0E00E9417
:100DA800C50ADF01E42FF0E00E94C50AE00FF11F39
:100DB8001EC09801E52FF0E00E0F1F1FA885AF5F3A
:100DC800A887A150EB85AE1760F4F9012F5F3F4F5C
:100DD800A491B0E0E42FF0E00E94C50A0E0F1F1F97
:100DE800EDCFF901E491A985BA85EC93F8010E9449
:100DF8002D0B2C960895E0E0E0936202A091630227
:100E0800BB270E94610AF0E0AE0FBF1FE0916702A6
:100E1800F0E0AE0FBF1F69DFE09363020895AA9365
:100E280021970E94550A309709F455C0AF81AA301E
:100E380009F44FC0EF81EA93DE0117966DDFAF0129
:100E4800309709F44AC0E0916602AE81EA0F3E2F5E
:100E5800A0916202BB27F0E0EA0FFB1F8F01013867
:100E6800E0E01E0718F0032F1127C5DFE0916202AA
:100E7800EA93E0916302EA93E885EA930E94610AA3
:100E8800EA93E1E0EA935A934A93A7E03ADDE091C6
:100E98006202AE81EA0FEA93E0916302EA93E0917D
:100EA8006602EA930E94610A0E94680AE09162025F
:100EB800EA93A09163020E94610AEA0FEA933A93C7
:100EC800E09167020E94680AE0E8F0E0E017F107A5
:100ED80011F491DF02C0009362020E942D0B289644
:100EE8000895BA93AA931A93A981BA81ED91A98317
:100EF800BA831E2FE03019F0A12F91DFF5CF1881AA
:100F08000C94C609BA93AA931A93E981FA81319687
:100F1800E983FA833197E4911E2FE03019F0A12F6D
:100F28007EDFF3CF18810C94C609AA93A981BB2749
:100F3800C5DEE0936202A881BB27D7DEE093630297
:100F48000C947F09BA93AA931A930A93AA81BB8136
:100F580012960E94F80A309759F1AA81BB8114961B
:100F68000E94F80A8F01309761F00230E0E01E0716
:100F780098F0F80131978F01AA81BB811496ED93FF
:100F8800FC93AA81BB811296ED91FD913196FE9357
:100F9800EE933197AC81A083AA81BB810E94F80AA5
:100FA800FF232AF0ED91FD913196FE93EE9306C052
:100FB800AA81BB81EFEFFFEFED93FC9319810881C4
:100FC80076C1BA93AA9326970E94260B10E0AC85A7
:100FD800BD85E0E0F0E0ED93FC93EA89FB8931966A
:100FE800EA8BFB8B3197E4912E2FE03009F415C181
:100FF800E12FE03039F4253211F411E002C00E94EB
:10100800720A0AC1E130A9F4253219F40E94720A61
:1010180002C112E040E000E02D3211F401E0FCC012
:101028002B3211F44BE2F8C0203211F440E2F4C044
:1010380002C0E23039F450E013E0203311F40068C4
:10104800EBC003C0E33009F0E7C0203310F02A33C7
:1010580008F007C0AAE05A9F502DE22FE0535E0F18
:10106800DBC0E22FE33649F40E94790AE889F9895E
:10107800A481AA930E947F0ACEC0E33741F40E945C
:10108800790A0E94850A0E945D091E2F0AC0E0376E
:1010980061F40E94790A0E94850A0E9469091E2F3C
:1010A800086002600F7730E034C0E43611F0E936AA
:1010B80011F4046002C0E53731F4E2E4F2E0EE83B3
:1010C800FF8315E00CC0E83511F4086003C0E83769
:1010D80009F0A1C0ECE4F2E0EE83FF8314E002FF24
:1010E80014C00E94790A0E948F0AAB85AA233AF499
:1010F800EA85FB850E94AC0AEA87FB874DE240300F
:1011080011F01F5F01C00B7F04C00E94790A0E9482
:101118008F0A00FD11C0151778F407FF08C002FFF9
:1011280004C00B7F242F115001C020E301C020E22E
:101138000E94720A5150EFCF312F01FF17C0303093
:10114800A1F003FF06C0EE81FF812591EE83FF83A6
:1011580005C0AE81BF812D91AE83BF830E94720A04
:10116800503009F051503150EACF4BC020E3EE81A6
:10117800FF810E94FC0AE887F987EE81FF81329699
:10118800EE83FF83E885F985AA85BB85AE17BF077F
:1011980050F02F5FA885B985EA85FB85EA1BFB0B14
:1011A800EA87FB87EFCF2A3328F003FF02C0295FC5
:1011B80001C0295D04FD1AC0213320F4A885B98532
:1011C800119709F409C0531710F000FF01C013C0AC
:1011D80020E207FF0BC020E3006102FF07C00B7F7E
:1011E8004A930E947F0A503009F051500E94720AB7
:1011F800503009F051503150A885B985129708F040
:10120800B5CF00FF08C0503031F05150E0E2EA930A
:101218000E947F0AF8CF10E0E0CEAC85BD850E9421
:10122800F80A0E942D0B64960895FF92F82E2697CF
:101238000E94280B0E94970A309719F4EFEFFFEFEE
:1012480023C0DE0116960E94A80A8D010E94970A03
:10125800EE83FF83E0E0E887E987DE011A960E94C3
:10126800A80A0E94F80AFA93EA931A930A93E6EAFC
:10127800F7E0FA93EA93DE011A96A3DE9F01AE81A6
:10128800BF81E0E0EC93F9010E942F0B2A96FF90B2
:101298000895BA93AA93B981A881109631F0FC8178
:1012A800EB816A8161931197E9F7EB81FC812596BF
:1012B8000895BA93AA93A991B991EE27FF276D9142
:1012C800662311F03196FBCF0895BA93AA93AA2703
:1012D800BB27E991F9910590002011F01196FBCFF9
:1012E800FD010895AA93E881F0E0E85CFD4FA49120
:1012F800E9810E94B00A22960895AA931A93E98177
:10130800E73011F0EA3019F41091600209C0E930B1
:1013180019F41091610204C0E830A1F41091700230
:10132800E0916102E03049F0103019F0EFEF1881D8
:1013380029C0EA81E095188125C0103019F4E0E051
:10134800188120C0EA8118811DC0BA93AA93EA8146
:10135800E13021F4E881F981E49114C0E23029F404
:10136800A881B9810E94050B0DC0E33041F4A88122
:10137800B981E0917902F0917A02099503C0A881B8
:10138800B981EC9123960895AA93EB81E03029F472
:10139800E881A981BA81EC9314C0E23031F4E88184
:1013A800A981BA810E94110B0CC0E33051F4E98184
:1013B800FA81FA93EA93AA81E0917B02F0917C0288
:1013C800099524960895BA93AA93A881B981089596
:1013D800EA81FB81AC81BD810895AAE0B0E00E945A
:1013E800CD0AE40DF51D0895C198EFEFEABBE88139
:1013F800EBBB0E943E030C944203E695E695E69506
:10140800AE2F0C947D030E94A2030C948D03EA0F67
:10141800FB1FEE83FF830895EC85EA93EF81F8853F
:101428003196EF83F8873197FA93EA93A0E00C940A
:10143800C809EC85EA93EF81F8853196EF83F88740
:101448003197089566277727DF01CB010C94A90906
:101458005A93AA850C9481090A930395E889EA931B
:101468005A9308950A930395A8890E94B403E42324
:1014780008955E2FEC85EA93AF81B8858827992770
:101488000E94A9091E2E08950A930395E889EA93F4
:10149800EE85EA93E985FA853196E987FA873197E7
:1014A800D1CF0E94260BE0916402F0916502089565
:1014B800F8010F5F1F4F04900895E0916402F091C6
:1014C80065023196E4910895EA93E0E0EA93E0E05A
:1014D800F0E0FA93EA93A9E00C9485042A93AD8589
:1014E800BE85EF85F88909950895E889F9893497C3
:1014F800E88BF98B0895AD85BE85EF85F889099548
:101508000895A889B98914960E94F80AEE83FF8382
:10151800AE81BF810895A889B98914960E94F80AF6
:10152800EA87FB870895DE011C960E94A80A0E949C
:10153800F80A0895109639F088EE93E00197F1F7CC
:10154800A8951197C9F708950024AF0DB01D089507
:10155800F195E195F0400895EE230E2EEA2F19F04B
:10156800EE0F0A94E9F70895EE230E2EEA2F19F0EC
:10157800E6950A94E9F708956F2F660F660B762FA4
:101588000895FA9FF02DEB9FF00DEA9FE02DF10DE5
:1015980008951CD0F6DF0EF4DBDF08950024112433
:1015A80090E1AA0FBB1F001C111C0E1A1F0A18F489
:1015B8000E0E1F1E01C0A1609A9599F7FD01D0017A
:1015C800089504D0EBDF0EF4C3DF0895E894F7FF25
:1015D80002C0BEDF6894B7FF06C0A095B09511960B
:1015E80000F8039400FA0895ED91FC91119708957D
:1015F8000590F491E02D08957A936A93FA93EA930B
:101608000895E199FECFFF93FFB7F894AEBBBFBB37
:10161800E09AEDB3FFBFFF910895E19B02C0A89542
:10162800FCCF9FB7F894AEBBBFBBE09A8DB3E81769
:1016380019F0EDBBE29AE19A9FBF089500240A16BB
:101648000B0608955A934A933A932A931A930A9346
:1016580008955D814C813B812A8119810881089513
:00000001FF
